:020000002710C7
:020001001B9F43
:020002000000FC
:02000300E461B6
:02000400D8F032
:02000500E461B4
:020006000000F8
:020007001B9F3D
:020008002710BF
:020009001B9F3B
:02000A000000F4
:02000B00E461AE
:02000C00D8F02A
:02000D00E461AC
:02000E000000F0
:02000F001B9F35
:020010002710B7
:020011001B9F33
:020012000000EC
:02001300E461A6
:02001400D8F022
:02001500E461A4
:020016000000E8
:020017001B9F2D
:020018002710AF
:020019001B9F2B
:02001A000000E4
:02001B00E4619E
:02001C00D8F01A
:02001D00E4619C
:02001E000000E0
:02001F001B9F25
:020020002710A7
:020021001B9F23
:020022000000DC
:02002300E46196
:02002400D8F012
:02002500E46194
:020026000000D8
:020027001B9F1D
:0200280027109F
:020029001B9F1B
:02002A000000D4
:02002B00E4618E
:02002C00D8F00A
:02002D00E4618C
:02002E000000D0
:02002F001B9F15
:02003000271097
:020031001B9F13
:020032000000CC
:02003300E46186
:02003400D8F002
:02003500E46184
:020036000000C8
:020037001B9F0D
:0200380027108F
:020039001B9F0B
:02003A000000C4
:02003B00E4617E
:02003C00D8F0FA
:02003D00E4617C
:02003E000000C0
:02003F001B9F05
:02004000271087
:020041001B9F03
:020042000000BC
:02004300E46176
:02004400D8F0F2
:02004500E46174
:020046000000B8
:020047001B9FFD
:0200480027107F
:020049001B9FFB
:02004A000000B4
:02004B00E4616E
:02004C00D8F0EA
:02004D00E4616C
:02004E000000B0
:02004F001B9FF5
:02005000271077
:020051001B9FF3
:020052000000AC
:02005300E46166
:02005400D8F0E2
:02005500E46164
:020056000000A8
:020057001B9FED
:0200580027106F
:020059001B9FEB
:02005A000000A4
:02005B00E4615E
:02005C00D8F0DA
:02005D00E4615C
:02005E000000A0
:02005F001B9FE5
:02006000271067
:020061001B9FE3
:0200620000009C
:02006300E46156
:02006400D8F0D2
:02006500E46154
:02006600000098
:020067001B9FDD
:0200680027105F
:020069001B9FDB
:02006A00000094
:02006B00E4614E
:02006C00D8F0CA
:02006D00E4614C
:02006E00000090
:02006F001B9FD5
:02007000271057
:020071001B9FD3
:0200720000008C
:02007300E46146
:02007400D8F0C2
:02007500E46144
:02007600000088
:020077001B9FCD
:0200780027104F
:020079001B9FCB
:02007A00000084
:02007B00E4613E
:02007C00D8F0BA
:02007D00E4613C
:02007E00000080
:02007F001B9FC5
:02008000271047
:020081001B9FC3
:0200820000007C
:02008300E46136
:02008400D8F0B2
:02008500E46134
:02008600000078
:020087001B9FBD
:0200880027103F
:020089001B9FBB
:02008A00000074
:02008B00E4612E
:02008C00D8F0AA
:02008D00E4612C
:02008E00000070
:02008F001B9FB5
:02009000271037
:020091001B9FB3
:0200920000006C
:02009300E46126
:02009400D8F0A2
:02009500E46124
:02009600000068
:020097001B9FAD
:0200980027102F
:020099001B9FAB
:02009A00000064
:02009B00E4611E
:02009C00D8F09A
:02009D00E4611C
:02009E00000060
:02009F001B9FA5
:0200A000271027
:0200A1001B9FA3
:0200A20000005C
:0200A300E46116
:0200A400D8F092
:0200A500E46114
:0200A600000058
:0200A7001B9F9D
:0200A80027101F
:0200A9001B9F9B
:0200AA00000054
:0200AB00E4610E
:0200AC00D8F08A
:0200AD00E4610C
:0200AE00000050
:0200AF001B9F95
:0200B000271017
:0200B1001B9F93
:0200B20000004C
:0200B300E46106
:0200B400D8F082
:0200B500E46104
:0200B600000048
:0200B7001B9F8D
:0200B80027100F
:0200B9001B9F8B
:0200BA00000044
:0200BB00E461FE
:0200BC00D8F07A
:0200BD00E461FC
:0200BE00000040
:0200BF001B9F85
:0200C000271007
:0200C1001B9F83
:0200C20000003C
:0200C300E461F6
:0200C400D8F072
:0200C500E461F4
:0200C600000038
:0200C7001B9F7D
:0200C8002710FF
:0200C9001B9F7B
:0200CA00000034
:0200CB00E461EE
:0200CC00D8F06A
:0200CD00E461EC
:0200CE00000030
:0200CF001B9F75
:0200D0002710F7
:0200D1001B9F73
:0200D20000002C
:0200D300E461E6
:0200D400D8F062
:0200D500E461E4
:0200D600000028
:0200D7001B9F6D
:0200D8002710EF
:0200D9001B9F6B
:0200DA00000024
:0200DB00E461DE
:0200DC00D8F05A
:0200DD00E461DC
:0200DE00000020
:0200DF001B9F65
:0200E0002710E7
:0200E1001B9F63
:0200E20000001C
:0200E300E461D6
:0200E400D8F052
:0200E500E461D4
:0200E600000018
:0200E7001B9F5D
:0200E8002710DF
:0200E9001B9F5B
:0200EA00000014
:0200EB00E461CE
:0200EC00D8F04A
:0200ED00E461CC
:0200EE00000010
:0200EF001B9F55
:0200F0002710D7
:0200F1001B9F53
:0200F20000000C
:0200F300E461C6
:0200F400D8F042
:0200F500E461C4
:0200F600000008
:0200F7001B9F4D
:0200F8002710CF
:0200F9001B9F4B
:0200FA00000004
:0200FB00E461BE
:0200FC00D8F03A
:0200FD00E461BC
:0200FE00000000
:0200FF001B9F45
:020100002710C6
:020101001B9F42
:020102000000FB
:02010300E461B5
:02010400D8F031
:02010500E461B3
:020106000000F7
:020107001B9F3C
:020108002710BE
:020109001B9F3A
:02010A000000F3
:02010B00E461AD
:02010C00D8F029
:02010D00E461AB
:02010E000000EF
:02010F001B9F34
:020110002710B6
:020111001B9F32
:020112000000EB
:02011300E461A5
:02011400D8F021
:02011500E461A3
:020116000000E7
:020117001B9F2C
:020118002710AE
:020119001B9F2A
:02011A000000E3
:02011B00E4619D
:02011C00D8F019
:02011D00E4619B
:02011E000000DF
:02011F001B9F24
:020120002710A6
:020121001B9F22
:020122000000DB
:02012300E46195
:02012400D8F011
:02012500E46193
:020126000000D7
:020127001B9F1C
:0201280027109E
:020129001B9F1A
:02012A000000D3
:02012B00E4618D
:02012C00D8F009
:02012D00E4618B
:02012E000000CF
:02012F001B9F14
:02013000271096
:020131001B9F12
:020132000000CB
:02013300E46185
:02013400D8F001
:02013500E46183
:020136000000C7
:020137001B9F0C
:0201380027108E
:020139001B9F0A
:02013A000000C3
:02013B00E4617D
:02013C00D8F0F9
:02013D00E4617B
:02013E000000BF
:02013F001B9F04
:02014000271086
:020141001B9F02
:020142000000BB
:02014300E46175
:02014400D8F0F1
:02014500E46173
:020146000000B7
:020147001B9FFC
:0201480027107E
:020149001B9FFA
:02014A000000B3
:02014B00E4616D
:02014C00D8F0E9
:02014D00E4616B
:02014E000000AF
:02014F001B9FF4
:02015000271076
:020151001B9FF2
:020152000000AB
:02015300E46165
:02015400D8F0E1
:02015500E46163
:020156000000A7
:020157001B9FEC
:0201580027106E
:020159001B9FEA
:02015A000000A3
:02015B00E4615D
:02015C00D8F0D9
:02015D00E4615B
:02015E0000009F
:02015F001B9FE4
:02016000271066
:020161001B9FE2
:0201620000009B
:02016300E46155
:02016400D8F0D1
:02016500E46153
:02016600000097
:020167001B9FDC
:0201680027105E
:020169001B9FDA
:02016A00000093
:02016B00E4614D
:02016C00D8F0C9
:02016D00E4614B
:02016E0000008F
:02016F001B9FD4
:02017000271056
:020171001B9FD2
:0201720000008B
:02017300E46145
:02017400D8F0C1
:02017500E46143
:02017600000087
:020177001B9FCC
:0201780027104E
:020179001B9FCA
:02017A00000083
:02017B00E4613D
:02017C00D8F0B9
:02017D00E4613B
:02017E0000007F
:02017F001B9FC4
:02018000271046
:020181001B9FC2
:0201820000007B
:02018300E46135
:02018400D8F0B1
:02018500E46133
:02018600000077
:020187001B9FBC
:0201880027103E
:020189001B9FBA
:02018A00000073
:02018B00E4612D
:02018C00D8F0A9
:02018D00E4612B
:02018E0000006F
:02018F001B9FB4
:02019000271036
:020191001B9FB2
:0201920000006B
:02019300E46125
:02019400D8F0A1
:02019500E46123
:02019600000067
:020197001B9FAC
:0201980027102E
:020199001B9FAA
:02019A00000063
:02019B00E4611D
:02019C00D8F099
:02019D00E4611B
:02019E0000005F
:02019F001B9FA4
:0201A000271026
:0201A1001B9FA2
:0201A20000005B
:0201A300E46115
:0201A400D8F091
:0201A500E46113
:0201A600000057
:0201A7001B9F9C
:0201A80027101E
:0201A9001B9F9A
:0201AA00000053
:0201AB00E4610D
:0201AC00D8F089
:0201AD00E4610B
:0201AE0000004F
:0201AF001B9F94
:0201B000271016
:0201B1001B9F92
:0201B20000004B
:0201B300E46105
:0201B400D8F081
:0201B500E46103
:0201B600000047
:0201B7001B9F8C
:0201B80027100E
:0201B9001B9F8A
:0201BA00000043
:0201BB00E461FD
:0201BC00D8F079
:0201BD00E461FB
:0201BE0000003F
:0201BF001B9F84
:0201C000271006
:0201C1001B9F82
:0201C20000003B
:0201C300E461F5
:0201C400D8F071
:0201C500E461F3
:0201C600000037
:0201C7001B9F7C
:0201C8002710FE
:0201C9001B9F7A
:0201CA00000033
:0201CB00E461ED
:0201CC00D8F069
:0201CD00E461EB
:0201CE0000002F
:0201CF001B9F74
:0201D0002710F6
:0201D1001B9F72
:0201D20000002B
:0201D300E461E5
:0201D400D8F061
:0201D500E461E3
:0201D600000027
:0201D7001B9F6C
:0201D8002710EE
:0201D9001B9F6A
:0201DA00000023
:0201DB00E461DD
:0201DC00D8F059
:0201DD00E461DB
:0201DE0000001F
:0201DF001B9F64
:0201E0002710E6
:0201E1001B9F62
:0201E20000001B
:0201E300E461D5
:0201E400D8F051
:0201E500E461D3
:0201E600000017
:0201E7001B9F5C
:0201E8002710DE
:0201E9001B9F5A
:0201EA00000013
:0201EB00E461CD
:0201EC00D8F049
:0201ED00E461CB
:0201EE0000000F
:0201EF001B9F54
:0201F0002710D6
:0201F1001B9F52
:0201F20000000B
:0201F300E461C5
:0201F400D8F041
:0201F500E461C3
:0201F600000007
:0201F7001B9F4C
:0201F8002710CE
:0201F9001B9F4A
:0201FA00000003
:0201FB00E461BD
:0201FC00D8F039
:0201FD00E461BB
:0201FE000000FF
:0201FF001B9F44
:020200002710C5
:020201001B9F41
:020202000000FA
:02020300E461B4
:02020400D8F030
:02020500E461B2
:020206000000F6
:020207001B9F3B
:020208002710BD
:020209001B9F39
:02020A000000F2
:02020B00E461AC
:02020C00D8F028
:02020D00E461AA
:02020E000000EE
:02020F001B9F33
:020210002710B5
:020211001B9F31
:020212000000EA
:02021300E461A4
:02021400D8F020
:02021500E461A2
:020216000000E6
:020217001B9F2B
:020218002710AD
:020219001B9F29
:02021A000000E2
:02021B00E4619C
:02021C00D8F018
:02021D00E4619A
:02021E000000DE
:02021F001B9F23
:020220002710A5
:020221001B9F21
:020222000000DA
:02022300E46194
:02022400D8F010
:02022500E46192
:020226000000D6
:020227001B9F1B
:0202280027109D
:020229001B9F19
:02022A000000D2
:02022B00E4618C
:02022C00D8F008
:02022D00E4618A
:02022E000000CE
:02022F001B9F13
:02023000271095
:020231001B9F11
:020232000000CA
:02023300E46184
:02023400D8F000
:02023500E46182
:020236000000C6
:020237001B9F0B
:0202380027108D
:020239001B9F09
:02023A000000C2
:02023B00E4617C
:02023C00D8F0F8
:02023D00E4617A
:02023E000000BE
:02023F001B9F03
:02024000271085
:020241001B9F01
:020242000000BA
:02024300E46174
:02024400D8F0F0
:02024500E46172
:020246000000B6
:020247001B9FFB
:0202480027107D
:020249001B9FF9
:02024A000000B2
:02024B00E4616C
:02024C00D8F0E8
:02024D00E4616A
:02024E000000AE
:02024F001B9FF3
:02025000271075
:020251001B9FF1
:020252000000AA
:02025300E46164
:02025400D8F0E0
:02025500E46162
:020256000000A6
:020257001B9FEB
:0202580027106D
:020259001B9FE9
:02025A000000A2
:02025B00E4615C
:02025C00D8F0D8
:02025D00E4615A
:02025E0000009E
:02025F001B9FE3
:02026000271065
:020261001B9FE1
:0202620000009A
:02026300E46154
:02026400D8F0D0
:02026500E46152
:02026600000096
:020267001B9FDB
:0202680027105D
:020269001B9FD9
:02026A00000092
:02026B00E4614C
:02026C00D8F0C8
:02026D00E4614A
:02026E0000008E
:02026F001B9FD3
:02027000271055
:020271001B9FD1
:0202720000008A
:02027300E46144
:02027400D8F0C0
:02027500E46142
:02027600000086
:020277001B9FCB
:0202780027104D
:020279001B9FC9
:02027A00000082
:02027B00E4613C
:02027C00D8F0B8
:02027D00E4613A
:02027E0000007E
:02027F001B9FC3
:02028000271045
:020281001B9FC1
:0202820000007A
:02028300E46134
:02028400D8F0B0
:02028500E46132
:02028600000076
:020287001B9FBB
:0202880027103D
:020289001B9FB9
:02028A00000072
:02028B00E4612C
:02028C00D8F0A8
:02028D00E4612A
:02028E0000006E
:02028F001B9FB3
:02029000271035
:020291001B9FB1
:0202920000006A
:02029300E46124
:02029400D8F0A0
:02029500E46122
:02029600000066
:020297001B9FAB
:0202980027102D
:020299001B9FA9
:02029A00000062
:02029B00E4611C
:02029C00D8F098
:02029D00E4611A
:02029E0000005E
:02029F001B9FA3
:0202A000271025
:0202A1001B9FA1
:0202A20000005A
:0202A300E46114
:0202A400D8F090
:0202A500E46112
:0202A600000056
:0202A7001B9F9B
:0202A80027101D
:0202A9001B9F99
:0202AA00000052
:0202AB00E4610C
:0202AC00D8F088
:0202AD00E4610A
:0202AE0000004E
:0202AF001B9F93
:0202B000271015
:0202B1001B9F91
:0202B20000004A
:0202B300E46104
:0202B400D8F080
:0202B500E46102
:0202B600000046
:0202B7001B9F8B
:0202B80027100D
:0202B9001B9F89
:0202BA00000042
:0202BB00E461FC
:0202BC00D8F078
:0202BD00E461FA
:0202BE0000003E
:0202BF001B9F83
:0202C000271005
:0202C1001B9F81
:0202C20000003A
:0202C300E461F4
:0202C400D8F070
:0202C500E461F2
:0202C600000036
:0202C7001B9F7B
:0202C8002710FD
:0202C9001B9F79
:0202CA00000032
:0202CB00E461EC
:0202CC00D8F068
:0202CD00E461EA
:0202CE0000002E
:0202CF001B9F73
:0202D0002710F5
:0202D1001B9F71
:0202D20000002A
:0202D300E461E4
:0202D400D8F060
:0202D500E461E2
:0202D600000026
:0202D7001B9F6B
:0202D8002710ED
:0202D9001B9F69
:0202DA00000022
:0202DB00E461DC
:0202DC00D8F058
:0202DD00E461DA
:0202DE0000001E
:0202DF001B9F63
:0202E0002710E5
:0202E1001B9F61
:0202E20000001A
:0202E300E461D4
:0202E400D8F050
:0202E500E461D2
:0202E600000016
:0202E7001B9F5B
:0202E8002710DD
:0202E9001B9F59
:0202EA00000012
:0202EB00E461CC
:0202EC00D8F048
:0202ED00E461CA
:0202EE0000000E
:0202EF001B9F53
:0202F0002710D5
:0202F1001B9F51
:0202F20000000A
:0202F300E461C4
:0202F400D8F040
:0202F500E461C2
:0202F600000006
:0202F7001B9F4B
:0202F8002710CD
:0202F9001B9F49
:0202FA00000002
:0202FB00E461BC
:0202FC00D8F038
:0202FD00E461BA
:0202FE000000FE
:0202FF001B9F43
:020300002710C4
:020301001B9F40
:020302000000F9
:02030300E461B3
:02030400D8F02F
:02030500E461B1
:020306000000F5
:020307001B9F3A
:020308002710BC
:020309001B9F38
:02030A000000F1
:02030B00E461AB
:02030C00D8F027
:02030D00E461A9
:02030E000000ED
:02030F001B9F32
:020310002710B4
:020311001B9F30
:020312000000E9
:02031300E461A3
:02031400D8F01F
:02031500E461A1
:020316000000E5
:020317001B9F2A
:020318002710AC
:020319001B9F28
:02031A000000E1
:02031B00E4619B
:02031C00D8F017
:02031D00E46199
:02031E000000DD
:02031F001B9F22
:020320002710A4
:020321001B9F20
:020322000000D9
:02032300E46193
:02032400D8F00F
:02032500E46191
:020326000000D5
:020327001B9F1A
:0203280027109C
:020329001B9F18
:02032A000000D1
:02032B00E4618B
:02032C00D8F007
:02032D00E46189
:02032E000000CD
:02032F001B9F12
:02033000271094
:020331001B9F10
:020332000000C9
:02033300E46183
:02033400D8F0FF
:02033500E46181
:020336000000C5
:020337001B9F0A
:0203380027108C
:020339001B9F08
:02033A000000C1
:02033B00E4617B
:02033C00D8F0F7
:02033D00E46179
:02033E000000BD
:02033F001B9F02
:02034000271084
:020341001B9F00
:020342000000B9
:02034300E46173
:02034400D8F0EF
:02034500E46171
:020346000000B5
:020347001B9FFA
:0203480027107C
:020349001B9FF8
:02034A000000B1
:02034B00E4616B
:02034C00D8F0E7
:02034D00E46169
:02034E000000AD
:02034F001B9FF2
:02035000271074
:020351001B9FF0
:020352000000A9
:02035300E46163
:02035400D8F0DF
:02035500E46161
:020356000000A5
:020357001B9FEA
:0203580027106C
:020359001B9FE8
:02035A000000A1
:02035B00E4615B
:02035C00D8F0D7
:02035D00E46159
:02035E0000009D
:02035F001B9FE2
:02036000271064
:020361001B9FE0
:02036200000099
:02036300E46153
:02036400D8F0CF
:02036500E46151
:02036600000095
:020367001B9FDA
:0203680027105C
:020369001B9FD8
:02036A00000091
:02036B00E4614B
:02036C00D8F0C7
:02036D00E46149
:02036E0000008D
:02036F001B9FD2
:02037000271054
:020371001B9FD0
:02037200000089
:02037300E46143
:02037400D8F0BF
:02037500E46141
:02037600000085
:020377001B9FCA
:0203780027104C
:020379001B9FC8
:02037A00000081
:02037B00E4613B
:02037C00D8F0B7
:02037D00E46139
:02037E0000007D
:02037F001B9FC2
:02038000271044
:020381001B9FC0
:02038200000079
:02038300E46133
:02038400D8F0AF
:02038500E46131
:02038600000075
:020387001B9FBA
:0203880027103C
:020389001B9FB8
:02038A00000071
:02038B00E4612B
:02038C00D8F0A7
:02038D00E46129
:02038E0000006D
:02038F001B9FB2
:02039000271034
:020391001B9FB0
:02039200000069
:02039300E46123
:02039400D8F09F
:02039500E46121
:02039600000065
:020397001B9FAA
:0203980027102C
:020399001B9FA8
:02039A00000061
:02039B00E4611B
:02039C00D8F097
:02039D00E46119
:02039E0000005D
:02039F001B9FA2
:0203A000271024
:0203A1001B9FA0
:0203A200000059
:0203A300E46113
:0203A400D8F08F
:0203A500E46111
:0203A600000055
:0203A7001B9F9A
:0203A80027101C
:0203A9001B9F98
:0203AA00000051
:0203AB00E4610B
:0203AC00D8F087
:0203AD00E46109
:0203AE0000004D
:0203AF001B9F92
:0203B000271014
:0203B1001B9F90
:0203B200000049
:0203B300E46103
:0203B400D8F07F
:0203B500E46101
:0203B600000045
:0203B7001B9F8A
:0203B80027100C
:0203B9001B9F88
:0203BA00000041
:0203BB00E461FB
:0203BC00D8F077
:0203BD00E461F9
:0203BE0000003D
:0203BF001B9F82
:0203C000271004
:0203C1001B9F80
:0203C200000039
:0203C300E461F3
:0203C400D8F06F
:0203C500E461F1
:0203C600000035
:0203C7001B9F7A
:0203C8002710FC
:0203C9001B9F78
:0203CA00000031
:0203CB00E461EB
:0203CC00D8F067
:0203CD00E461E9
:0203CE0000002D
:0203CF001B9F72
:0203D0002710F4
:0203D1001B9F70
:0203D200000029
:0203D300E461E3
:0203D400D8F05F
:0203D500E461E1
:0203D600000025
:0203D7001B9F6A
:0203D8002710EC
:0203D9001B9F68
:0203DA00000021
:0203DB00E461DB
:0203DC00D8F057
:0203DD00E461D9
:0203DE0000001D
:0203DF001B9F62
:0203E0002710E4
:0203E1001B9F60
:0203E200000019
:0203E300E461D3
:0203E400D8F04F
:0203E500E461D1
:0203E600000015
:0203E7001B9F5A
:0203E8002710DC
:0203E9001B9F58
:0203EA00000011
:0203EB00E461CB
:0203EC00D8F047
:0203ED00E461C9
:0203EE0000000D
:0203EF001B9F52
:0203F0002710D4
:0203F1001B9F50
:0203F200000009
:0203F300E461C3
:0203F400D8F03F
:0203F500E461C1
:0203F600000005
:0203F7001B9F4A
:0203F8002710CC
:0203F9001B9F48
:0203FA00000001
:0203FB00E461BB
:0203FC00D8F037
:0203FD00E461B9
:0203FE000000FD
:0203FF001B9F42
:020400002710C3
:020401001B9F3F
:020402000000F8
:02040300E461B2
:02040400D8F02E
:02040500E461B0
:020406000000F4
:020407001B9F39
:020408002710BB
:020409001B9F37
:02040A000000F0
:02040B00E461AA
:02040C00D8F026
:02040D00E461A8
:02040E000000EC
:02040F001B9F31
:020410002710B3
:020411001B9F2F
:020412000000E8
:02041300E461A2
:02041400D8F01E
:02041500E461A0
:020416000000E4
:020417001B9F29
:020418002710AB
:020419001B9F27
:02041A000000E0
:02041B00E4619A
:02041C00D8F016
:02041D00E46198
:02041E000000DC
:02041F001B9F21
:020420002710A3
:020421001B9F1F
:020422000000D8
:02042300E46192
:02042400D8F00E
:02042500E46190
:020426000000D4
:020427001B9F19
:0204280027109B
:020429001B9F17
:02042A000000D0
:02042B00E4618A
:02042C00D8F006
:02042D00E46188
:02042E000000CC
:02042F001B9F11
:02043000271093
:020431001B9F0F
:020432000000C8
:02043300E46182
:02043400D8F0FE
:02043500E46180
:020436000000C4
:020437001B9F09
:0204380027108B
:020439001B9F07
:02043A000000C0
:02043B00E4617A
:02043C00D8F0F6
:02043D00E46178
:02043E000000BC
:02043F001B9F01
:02044000271083
:020441001B9FFF
:020442000000B8
:02044300E46172
:02044400D8F0EE
:02044500E46170
:020446000000B4
:020447001B9FF9
:0204480027107B
:020449001B9FF7
:02044A000000B0
:02044B00E4616A
:02044C00D8F0E6
:02044D00E46168
:02044E000000AC
:02044F001B9FF1
:02045000271073
:020451001B9FEF
:020452000000A8
:02045300E46162
:02045400D8F0DE
:02045500E46160
:020456000000A4
:020457001B9FE9
:0204580027106B
:020459001B9FE7
:02045A000000A0
:02045B00E4615A
:02045C00D8F0D6
:02045D00E46158
:02045E0000009C
:02045F001B9FE1
:02046000271063
:020461001B9FDF
:02046200000098
:02046300E46152
:02046400D8F0CE
:02046500E46150
:02046600000094
:020467001B9FD9
:0204680027105B
:020469001B9FD7
:02046A00000090
:02046B00E4614A
:02046C00D8F0C6
:02046D00E46148
:02046E0000008C
:02046F001B9FD1
:02047000271053
:020471001B9FCF
:02047200000088
:02047300E46142
:02047400D8F0BE
:02047500E46140
:02047600000084
:020477001B9FC9
:0204780027104B
:020479001B9FC7
:02047A00000080
:02047B00E4613A
:02047C00D8F0B6
:02047D00E46138
:02047E0000007C
:02047F001B9FC1
:02048000271043
:020481001B9FBF
:02048200000078
:02048300E46132
:02048400D8F0AE
:02048500E46130
:02048600000074
:020487001B9FB9
:0204880027103B
:020489001B9FB7
:02048A00000070
:02048B00E4612A
:02048C00D8F0A6
:02048D00E46128
:02048E0000006C
:02048F001B9FB1
:02049000271033
:020491001B9FAF
:02049200000068
:02049300E46122
:02049400D8F09E
:02049500E46120
:02049600000064
:020497001B9FA9
:0204980027102B
:020499001B9FA7
:02049A00000060
:02049B00E4611A
:02049C00D8F096
:02049D00E46118
:02049E0000005C
:02049F001B9FA1
:0204A000271023
:0204A1001B9F9F
:0204A200000058
:0204A300E46112
:0204A400D8F08E
:0204A500E46110
:0204A600000054
:0204A7001B9F99
:0204A80027101B
:0204A9001B9F97
:0204AA00000050
:0204AB00E4610A
:0204AC00D8F086
:0204AD00E46108
:0204AE0000004C
:0204AF001B9F91
:0204B000271013
:0204B1001B9F8F
:0204B200000048
:0204B300E46102
:0204B400D8F07E
:0204B500E46100
:0204B600000044
:0204B7001B9F89
:0204B80027100B
:0204B9001B9F87
:0204BA00000040
:0204BB00E461FA
:0204BC00D8F076
:0204BD00E461F8
:0204BE0000003C
:0204BF001B9F81
:0204C000271003
:0204C1001B9F7F
:0204C200000038
:0204C300E461F2
:0204C400D8F06E
:0204C500E461F0
:0204C600000034
:0204C7001B9F79
:0204C8002710FB
:0204C9001B9F77
:0204CA00000030
:0204CB00E461EA
:0204CC00D8F066
:0204CD00E461E8
:0204CE0000002C
:0204CF001B9F71
:0204D0002710F3
:0204D1001B9F6F
:0204D200000028
:0204D300E461E2
:0204D400D8F05E
:0204D500E461E0
:0204D600000024
:0204D7001B9F69
:0204D8002710EB
:0204D9001B9F67
:0204DA00000020
:0204DB00E461DA
:0204DC00D8F056
:0204DD00E461D8
:0204DE0000001C
:0204DF001B9F61
:0204E0002710E3
:0204E1001B9F5F
:0204E200000018
:0204E300E461D2
:0204E400D8F04E
:0204E500E461D0
:0204E600000014
:0204E7001B9F59
:0204E8002710DB
:0204E9001B9F57
:0204EA00000010
:0204EB00E461CA
:0204EC00D8F046
:0204ED00E461C8
:0204EE0000000C
:0204EF001B9F51
:0204F0002710D3
:0204F1001B9F4F
:0204F200000008
:0204F300E461C2
:0204F400D8F03E
:0204F500E461C0
:0204F600000004
:0204F7001B9F49
:0204F8002710CB
:0204F9001B9F47
:0204FA00000000
:0204FB00E461BA
:0204FC00D8F036
:0204FD00E461B8
:0204FE000000FC
:0204FF001B9F41
:020500002710C2
:020501001B9F3E
:020502000000F7
:02050300E461B1
:02050400D8F02D
:02050500E461AF
:020506000000F3
:020507001B9F38
:020508002710BA
:020509001B9F36
:02050A000000EF
:02050B00E461A9
:02050C00D8F025
:02050D00E461A7
:02050E000000EB
:02050F001B9F30
:020510002710B2
:020511001B9F2E
:020512000000E7
:02051300E461A1
:02051400D8F01D
:02051500E4619F
:020516000000E3
:020517001B9F28
:020518002710AA
:020519001B9F26
:02051A000000DF
:02051B00E46199
:02051C00D8F015
:02051D00E46197
:02051E000000DB
:02051F001B9F20
:020520002710A2
:020521001B9F1E
:020522000000D7
:02052300E46191
:02052400D8F00D
:02052500E4618F
:020526000000D3
:020527001B9F18
:0205280027109A
:020529001B9F16
:02052A000000CF
:02052B00E46189
:02052C00D8F005
:02052D00E46187
:02052E000000CB
:02052F001B9F10
:02053000271092
:020531001B9F0E
:020532000000C7
:02053300E46181
:02053400D8F0FD
:02053500E4617F
:020536000000C3
:020537001B9F08
:0205380027108A
:020539001B9F06
:02053A000000BF
:02053B00E46179
:02053C00D8F0F5
:02053D00E46177
:02053E000000BB
:02053F001B9F00
:02054000271082
:020541001B9FFE
:020542000000B7
:02054300E46171
:02054400D8F0ED
:02054500E4616F
:020546000000B3
:020547001B9FF8
:0205480027107A
:020549001B9FF6
:02054A000000AF
:02054B00E46169
:02054C00D8F0E5
:02054D00E46167
:02054E000000AB
:02054F001B9FF0
:02055000271072
:020551001B9FEE
:020552000000A7
:02055300E46161
:02055400D8F0DD
:02055500E4615F
:020556000000A3
:020557001B9FE8
:0205580027106A
:020559001B9FE6
:02055A0000009F
:02055B00E46159
:02055C00D8F0D5
:02055D00E46157
:02055E0000009B
:02055F001B9FE0
:02056000271062
:020561001B9FDE
:02056200000097
:02056300E46151
:02056400D8F0CD
:02056500E4614F
:02056600000093
:020567001B9FD8
:0205680027105A
:020569001B9FD6
:02056A0000008F
:02056B00E46149
:02056C00D8F0C5
:02056D00E46147
:02056E0000008B
:02056F001B9FD0
:02057000271052
:020571001B9FCE
:02057200000087
:02057300E46141
:02057400D8F0BD
:02057500E4613F
:02057600000083
:020577001B9FC8
:0205780027104A
:020579001B9FC6
:02057A0000007F
:02057B00E46139
:02057C00D8F0B5
:02057D00E46137
:02057E0000007B
:02057F001B9FC0
:02058000271042
:020581001B9FBE
:02058200000077
:02058300E46131
:02058400D8F0AD
:02058500E4612F
:02058600000073
:020587001B9FB8
:0205880027103A
:020589001B9FB6
:02058A0000006F
:02058B00E46129
:02058C00D8F0A5
:02058D00E46127
:02058E0000006B
:02058F001B9FB0
:02059000271032
:020591001B9FAE
:02059200000067
:02059300E46121
:02059400D8F09D
:02059500E4611F
:02059600000063
:020597001B9FA8
:0205980027102A
:020599001B9FA6
:02059A0000005F
:02059B00E46119
:02059C00D8F095
:02059D00E46117
:02059E0000005B
:02059F001B9FA0
:0205A000271022
:0205A1001B9F9E
:0205A200000057
:0205A300E46111
:0205A400D8F08D
:0205A500E4610F
:0205A600000053
:0205A7001B9F98
:0205A80027101A
:0205A9001B9F96
:0205AA0000004F
:0205AB00E46109
:0205AC00D8F085
:0205AD00E46107
:0205AE0000004B
:0205AF001B9F90
:0205B000271012
:0205B1001B9F8E
:0205B200000047
:0205B300E46101
:0205B400D8F07D
:0205B500E461FF
:0205B600000043
:0205B7001B9F88
:0205B80027100A
:0205B9001B9F86
:0205BA0000003F
:0205BB00E461F9
:0205BC00D8F075
:0205BD00E461F7
:0205BE0000003B
:0205BF001B9F80
:0205C000271002
:0205C1001B9F7E
:0205C200000037
:0205C300E461F1
:0205C400D8F06D
:0205C500E461EF
:0205C600000033
:0205C7001B9F78
:0205C8002710FA
:0205C9001B9F76
:0205CA0000002F
:0205CB00E461E9
:0205CC00D8F065
:0205CD00E461E7
:0205CE0000002B
:0205CF001B9F70
:0205D0002710F2
:0205D1001B9F6E
:0205D200000027
:0205D300E461E1
:0205D400D8F05D
:0205D500E461DF
:0205D600000023
:0205D7001B9F68
:0205D8002710EA
:0205D9001B9F66
:0205DA0000001F
:0205DB00E461D9
:0205DC00D8F055
:0205DD00E461D7
:0205DE0000001B
:0205DF001B9F60
:0205E0002710E2
:0205E1001B9F5E
:0205E200000017
:0205E300E461D1
:0205E400D8F04D
:0205E500E461CF
:0205E600000013
:0205E7001B9F58
:0205E8002710DA
:0205E9001B9F56
:0205EA0000000F
:0205EB00E461C9
:0205EC00D8F045
:0205ED00E461C7
:0205EE0000000B
:0205EF001B9F50
:0205F0002710D2
:0205F1001B9F4E
:0205F200000007
:0205F300E461C1
:0205F400D8F03D
:0205F500E461BF
:0205F600000003
:0205F7001B9F48
:0205F8002710CA
:0205F9001B9F46
:0205FA000000FF
:0205FB00E461B9
:0205FC00D8F035
:0205FD00E461B7
:0205FE000000FB
:0205FF001B9F40
:020600002710C1
:020601001B9F3D
:020602000000F6
:02060300E461B0
:02060400D8F02C
:02060500E461AE
:020606000000F2
:020607001B9F37
:020608002710B9
:020609001B9F35
:02060A000000EE
:02060B00E461A8
:02060C00D8F024
:02060D00E461A6
:02060E000000EA
:02060F001B9F2F
:020610002710B1
:020611001B9F2D
:020612000000E6
:02061300E461A0
:02061400D8F01C
:02061500E4619E
:020616000000E2
:020617001B9F27
:020618002710A9
:020619001B9F25
:02061A000000DE
:02061B00E46198
:02061C00D8F014
:02061D00E46196
:02061E000000DA
:02061F001B9F1F
:020620002710A1
:020621001B9F1D
:020622000000D6
:02062300E46190
:02062400D8F00C
:02062500E4618E
:020626000000D2
:020627001B9F17
:02062800271099
:020629001B9F15
:02062A000000CE
:02062B00E46188
:02062C00D8F004
:02062D00E46186
:02062E000000CA
:02062F001B9F0F
:02063000271091
:020631001B9F0D
:020632000000C6
:02063300E46180
:02063400D8F0FC
:02063500E4617E
:020636000000C2
:020637001B9F07
:02063800271089
:020639001B9F05
:02063A000000BE
:02063B00E46178
:02063C00D8F0F4
:02063D00E46176
:02063E000000BA
:02063F001B9FFF
:02064000271081
:020641001B9FFD
:020642000000B6
:02064300E46170
:02064400D8F0EC
:02064500E4616E
:020646000000B2
:020647001B9FF7
:02064800271079
:020649001B9FF5
:02064A000000AE
:02064B00E46168
:02064C00D8F0E4
:02064D00E46166
:02064E000000AA
:02064F001B9FEF
:02065000271071
:020651001B9FED
:020652000000A6
:02065300E46160
:02065400D8F0DC
:02065500E4615E
:020656000000A2
:020657001B9FE7
:02065800271069
:020659001B9FE5
:02065A0000009E
:02065B00E46158
:02065C00D8F0D4
:02065D00E46156
:02065E0000009A
:02065F001B9FDF
:02066000271061
:020661001B9FDD
:02066200000096
:02066300E46150
:02066400D8F0CC
:02066500E4614E
:02066600000092
:020667001B9FD7
:02066800271059
:020669001B9FD5
:02066A0000008E
:02066B00E46148
:02066C00D8F0C4
:02066D00E46146
:02066E0000008A
:02066F001B9FCF
:02067000271051
:020671001B9FCD
:02067200000086
:02067300E46140
:02067400D8F0BC
:02067500E4613E
:02067600000082
:020677001B9FC7
:02067800271049
:020679001B9FC5
:02067A0000007E
:02067B00E46138
:02067C00D8F0B4
:02067D00E46136
:02067E0000007A
:02067F001B9FBF
:02068000271041
:020681001B9FBD
:02068200000076
:02068300E46130
:02068400D8F0AC
:02068500E4612E
:02068600000072
:020687001B9FB7
:02068800271039
:020689001B9FB5
:02068A0000006E
:02068B00E46128
:02068C00D8F0A4
:02068D00E46126
:02068E0000006A
:02068F001B9FAF
:02069000271031
:020691001B9FAD
:02069200000066
:02069300E46120
:02069400D8F09C
:02069500E4611E
:02069600000062
:020697001B9FA7
:02069800271029
:020699001B9FA5
:02069A0000005E
:02069B00E46118
:02069C00D8F094
:02069D00E46116
:02069E0000005A
:02069F001B9F9F
:0206A000271021
:0206A1001B9F9D
:0206A200000056
:0206A300E46110
:0206A400D8F08C
:0206A500E4610E
:0206A600000052
:0206A7001B9F97
:0206A800271019
:0206A9001B9F95
:0206AA0000004E
:0206AB00E46108
:0206AC00D8F084
:0206AD00E46106
:0206AE0000004A
:0206AF001B9F8F
:0206B000271011
:0206B1001B9F8D
:0206B200000046
:0206B300E46100
:0206B400D8F07C
:0206B500E461FE
:0206B600000042
:0206B7001B9F87
:0206B800271009
:0206B9001B9F85
:0206BA0000003E
:0206BB00E461F8
:0206BC00D8F074
:0206BD00E461F6
:0206BE0000003A
:0206BF001B9F7F
:0206C000271001
:0206C1001B9F7D
:0206C200000036
:0206C300E461F0
:0206C400D8F06C
:0206C500E461EE
:0206C600000032
:0206C7001B9F77
:0206C8002710F9
:0206C9001B9F75
:0206CA0000002E
:0206CB00E461E8
:0206CC00D8F064
:0206CD00E461E6
:0206CE0000002A
:0206CF001B9F6F
:0206D0002710F1
:0206D1001B9F6D
:0206D200000026
:0206D300E461E0
:0206D400D8F05C
:0206D500E461DE
:0206D600000022
:0206D7001B9F67
:0206D8002710E9
:0206D9001B9F65
:0206DA0000001E
:0206DB00E461D8
:0206DC00D8F054
:0206DD00E461D6
:0206DE0000001A
:0206DF001B9F5F
:0206E0002710E1
:0206E1001B9F5D
:0206E200000016
:0206E300E461D0
:0206E400D8F04C
:0206E500E461CE
:0206E600000012
:0206E7001B9F57
:0206E8002710D9
:0206E9001B9F55
:0206EA0000000E
:0206EB00E461C8
:0206EC00D8F044
:0206ED00E461C6
:0206EE0000000A
:0206EF001B9F4F
:0206F0002710D1
:0206F1001B9F4D
:0206F200000006
:0206F300E461C0
:0206F400D8F03C
:0206F500E461BE
:0206F600000002
:0206F7001B9F47
:0206F8002710C9
:0206F9001B9F45
:0206FA000000FE
:0206FB00E461B8
:0206FC00D8F034
:0206FD00E461B6
:0206FE000000FA
:0206FF001B9F3F
:020700002710C0
:020701001B9F3C
:020702000000F5
:02070300E461AF
:02070400D8F02B
:02070500E461AD
:020706000000F1
:020707001B9F36
:020708002710B8
:020709001B9F34
:02070A000000ED
:02070B00E461A7
:02070C00D8F023
:02070D00E461A5
:02070E000000E9
:02070F001B9F2E
:020710002710B0
:020711001B9F2C
:020712000000E5
:02071300E4619F
:02071400D8F01B
:02071500E4619D
:020716000000E1
:020717001B9F26
:020718002710A8
:020719001B9F24
:02071A000000DD
:02071B00E46197
:02071C00D8F013
:02071D00E46195
:02071E000000D9
:02071F001B9F1E
:020720002710A0
:020721001B9F1C
:020722000000D5
:02072300E4618F
:02072400D8F00B
:02072500E4618D
:020726000000D1
:020727001B9F16
:02072800271098
:020729001B9F14
:02072A000000CD
:02072B00E46187
:02072C00D8F003
:02072D00E46185
:02072E000000C9
:02072F001B9F0E
:02073000271090
:020731001B9F0C
:020732000000C5
:02073300E4617F
:02073400D8F0FB
:02073500E4617D
:020736000000C1
:020737001B9F06
:02073800271088
:020739001B9F04
:02073A000000BD
:02073B00E46177
:02073C00D8F0F3
:02073D00E46175
:02073E000000B9
:02073F001B9FFE
:02074000271080
:020741001B9FFC
:020742000000B5
:02074300E4616F
:02074400D8F0EB
:02074500E4616D
:020746000000B1
:020747001B9FF6
:02074800271078
:020749001B9FF4
:02074A000000AD
:02074B00E46167
:02074C00D8F0E3
:02074D00E46165
:02074E000000A9
:02074F001B9FEE
:02075000271070
:020751001B9FEC
:020752000000A5
:02075300E4615F
:02075400D8F0DB
:02075500E4615D
:020756000000A1
:020757001B9FE6
:02075800271068
:020759001B9FE4
:02075A0000009D
:02075B00E46157
:02075C00D8F0D3
:02075D00E46155
:02075E00000099
:02075F001B9FDE
:02076000271060
:020761001B9FDC
:02076200000095
:02076300E4614F
:02076400D8F0CB
:02076500E4614D
:02076600000091
:020767001B9FD6
:02076800271058
:020769001B9FD4
:02076A0000008D
:02076B00E46147
:02076C00D8F0C3
:02076D00E46145
:02076E00000089
:02076F001B9FCE
:02077000271050
:020771001B9FCC
:02077200000085
:02077300E4613F
:02077400D8F0BB
:02077500E4613D
:02077600000081
:020777001B9FC6
:02077800271048
:020779001B9FC4
:02077A0000007D
:02077B00E46137
:02077C00D8F0B3
:02077D00E46135
:02077E00000079
:02077F001B9FBE
:02078000271040
:020781001B9FBC
:02078200000075
:02078300E4612F
:02078400D8F0AB
:02078500E4612D
:02078600000071
:020787001B9FB6
:02078800271038
:020789001B9FB4
:02078A0000006D
:02078B00E46127
:02078C00D8F0A3
:02078D00E46125
:02078E00000069
:02078F001B9FAE
:02079000271030
:020791001B9FAC
:02079200000065
:02079300E4611F
:02079400D8F09B
:02079500E4611D
:02079600000061
:020797001B9FA6
:02079800271028
:020799001B9FA4
:02079A0000005D
:02079B00E46117
:02079C00D8F093
:02079D00E46115
:02079E00000059
:02079F001B9F9E
:0207A000271020
:0207A1001B9F9C
:0207A200000055
:0207A300E4610F
:0207A400D8F08B
:0207A500E4610D
:0207A600000051
:0207A7001B9F96
:0207A800271018
:0207A9001B9F94
:0207AA0000004D
:0207AB00E46107
:0207AC00D8F083
:0207AD00E46105
:0207AE00000049
:0207AF001B9F8E
:0207B000271010
:0207B1001B9F8C
:0207B200000045
:0207B300E461FF
:0207B400D8F07B
:0207B500E461FD
:0207B600000041
:0207B7001B9F86
:0207B800271008
:0207B9001B9F84
:0207BA0000003D
:0207BB00E461F7
:0207BC00D8F073
:0207BD00E461F5
:0207BE00000039
:0207BF001B9F7E
:0207C000271000
:0207C1001B9F7C
:0207C200000035
:0207C300E461EF
:0207C400D8F06B
:0207C500E461ED
:0207C600000031
:0207C7001B9F76
:0207C8002710F8
:0207C9001B9F74
:0207CA0000002D
:0207CB00E461E7
:0207CC00D8F063
:0207CD00E461E5
:0207CE00000029
:0207CF001B9F6E
:0207D0002710F0
:0207D1001B9F6C
:0207D200000025
:0207D300E461DF
:0207D400D8F05B
:0207D500E461DD
:0207D600000021
:0207D7001B9F66
:0207D8002710E8
:0207D9001B9F64
:0207DA0000001D
:0207DB00E461D7
:0207DC00D8F053
:0207DD00E461D5
:0207DE00000019
:0207DF001B9F5E
:0207E0002710E0
:0207E1001B9F5C
:0207E200000015
:0207E300E461CF
:0207E400D8F04B
:0207E500E461CD
:0207E600000011
:0207E7001B9F56
:0207E8002710D8
:0207E9001B9F54
:0207EA0000000D
:0207EB00E461C7
:0207EC00D8F043
:0207ED00E461C5
:0207EE00000009
:0207EF001B9F4E
:0207F0002710D0
:0207F1001B9F4C
:0207F200000005
:0207F300E461BF
:0207F400D8F03B
:0207F500E461BD
:0207F600000001
:0207F7001B9F46
:0207F8002710C8
:0207F9001B9F44
:0207FA000000FD
:0207FB00E461B7
:0207FC00D8F033
:0207FD00E461B5
:0207FE000000F9
:0207FF001B9F3E
:020800002710BF
:020801001B9F3B
:020802000000F4
:02080300E461AE
:02080400D8F02A
:02080500E461AC
:020806000000F0
:020807001B9F35
:020808002710B7
:020809001B9F33
:02080A000000EC
:02080B00E461A6
:02080C00D8F022
:02080D00E461A4
:02080E000000E8
:02080F001B9F2D
:020810002710AF
:020811001B9F2B
:020812000000E4
:02081300E4619E
:02081400D8F01A
:02081500E4619C
:020816000000E0
:020817001B9F25
:020818002710A7
:020819001B9F23
:02081A000000DC
:02081B00E46196
:02081C00D8F012
:02081D00E46194
:02081E000000D8
:02081F001B9F1D
:0208200027109F
:020821001B9F1B
:020822000000D4
:02082300E4618E
:02082400D8F00A
:02082500E4618C
:020826000000D0
:020827001B9F15
:02082800271097
:020829001B9F13
:02082A000000CC
:02082B00E46186
:02082C00D8F002
:02082D00E46184
:02082E000000C8
:02082F001B9F0D
:0208300027108F
:020831001B9F0B
:020832000000C4
:02083300E4617E
:02083400D8F0FA
:02083500E4617C
:020836000000C0
:020837001B9F05
:02083800271087
:020839001B9F03
:02083A000000BC
:02083B00E46176
:02083C00D8F0F2
:02083D00E46174
:02083E000000B8
:02083F001B9FFD
:0208400027107F
:020841001B9FFB
:020842000000B4
:02084300E4616E
:02084400D8F0EA
:02084500E4616C
:020846000000B0
:020847001B9FF5
:02084800271077
:020849001B9FF3
:02084A000000AC
:02084B00E46166
:02084C00D8F0E2
:02084D00E46164
:02084E000000A8
:02084F001B9FED
:0208500027106F
:020851001B9FEB
:020852000000A4
:02085300E4615E
:02085400D8F0DA
:02085500E4615C
:020856000000A0
:020857001B9FE5
:02085800271067
:020859001B9FE3
:02085A0000009C
:02085B00E46156
:02085C00D8F0D2
:02085D00E46154
:02085E00000098
:02085F001B9FDD
:0208600027105F
:020861001B9FDB
:02086200000094
:02086300E4614E
:02086400D8F0CA
:02086500E4614C
:02086600000090
:020867001B9FD5
:02086800271057
:020869001B9FD3
:02086A0000008C
:02086B00E46146
:02086C00D8F0C2
:02086D00E46144
:02086E00000088
:02086F001B9FCD
:0208700027104F
:020871001B9FCB
:02087200000084
:02087300E4613E
:02087400D8F0BA
:02087500E4613C
:02087600000080
:020877001B9FC5
:02087800271047
:020879001B9FC3
:02087A0000007C
:02087B00E46136
:02087C00D8F0B2
:02087D00E46134
:02087E00000078
:02087F001B9FBD
:0208800027103F
:020881001B9FBB
:02088200000074
:02088300E4612E
:02088400D8F0AA
:02088500E4612C
:02088600000070
:020887001B9FB5
:02088800271037
:020889001B9FB3
:02088A0000006C
:02088B00E46126
:02088C00D8F0A2
:02088D00E46124
:02088E00000068
:02088F001B9FAD
:0208900027102F
:020891001B9FAB
:02089200000064
:02089300E4611E
:02089400D8F09A
:02089500E4611C
:02089600000060
:020897001B9FA5
:02089800271027
:020899001B9FA3
:02089A0000005C
:02089B00E46116
:02089C00D8F092
:02089D00E46114
:02089E00000058
:02089F001B9F9D
:0208A00027101F
:0208A1001B9F9B
:0208A200000054
:0208A300E4610E
:0208A400D8F08A
:0208A500E4610C
:0208A600000050
:0208A7001B9F95
:0208A800271017
:0208A9001B9F93
:0208AA0000004C
:0208AB00E46106
:0208AC00D8F082
:0208AD00E46104
:0208AE00000048
:0208AF001B9F8D
:0208B00027100F
:0208B1001B9F8B
:0208B200000044
:0208B300E461FE
:0208B400D8F07A
:0208B500E461FC
:0208B600000040
:0208B7001B9F85
:0208B800271007
:0208B9001B9F83
:0208BA0000003C
:0208BB00E461F6
:0208BC00D8F072
:0208BD00E461F4
:0208BE00000038
:0208BF001B9F7D
:0208C0002710FF
:0208C1001B9F7B
:0208C200000034
:0208C300E461EE
:0208C400D8F06A
:0208C500E461EC
:0208C600000030
:0208C7001B9F75
:0208C8002710F7
:0208C9001B9F73
:0208CA0000002C
:0208CB00E461E6
:0208CC00D8F062
:0208CD00E461E4
:0208CE00000028
:0208CF001B9F6D
:0208D0002710EF
:0208D1001B9F6B
:0208D200000024
:0208D300E461DE
:0208D400D8F05A
:0208D500E461DC
:0208D600000020
:0208D7001B9F65
:0208D8002710E7
:0208D9001B9F63
:0208DA0000001C
:0208DB00E461D6
:0208DC00D8F052
:0208DD00E461D4
:0208DE00000018
:0208DF001B9F5D
:0208E0002710DF
:0208E1001B9F5B
:0208E200000014
:0208E300E461CE
:0208E400D8F04A
:0208E500E461CC
:0208E600000010
:0208E7001B9F55
:0208E8002710D7
:0208E9001B9F53
:0208EA0000000C
:0208EB00E461C6
:0208EC00D8F042
:0208ED00E461C4
:0208EE00000008
:0208EF001B9F4D
:0208F0002710CF
:0208F1001B9F4B
:0208F200000004
:0208F300E461BE
:0208F400D8F03A
:0208F500E461BC
:0208F600000000
:0208F7001B9F45
:0208F8002710C7
:0208F9001B9F43
:0208FA000000FC
:0208FB00E461B6
:0208FC00D8F032
:0208FD00E461B4
:0208FE000000F8
:0208FF001B9F3D
:020900002710BE
:020901001B9F3A
:020902000000F3
:02090300E461AD
:02090400D8F029
:02090500E461AB
:020906000000EF
:020907001B9F34
:020908002710B6
:020909001B9F32
:02090A000000EB
:02090B00E461A5
:02090C00D8F021
:02090D00E461A3
:02090E000000E7
:02090F001B9F2C
:020910002710AE
:020911001B9F2A
:020912000000E3
:02091300E4619D
:02091400D8F019
:02091500E4619B
:020916000000DF
:020917001B9F24
:020918002710A6
:020919001B9F22
:02091A000000DB
:02091B00E46195
:02091C00D8F011
:02091D00E46193
:02091E000000D7
:02091F001B9F1C
:0209200027109E
:020921001B9F1A
:020922000000D3
:02092300E4618D
:02092400D8F009
:02092500E4618B
:020926000000CF
:020927001B9F14
:02092800271096
:020929001B9F12
:02092A000000CB
:02092B00E46185
:02092C00D8F001
:02092D00E46183
:02092E000000C7
:02092F001B9F0C
:0209300027108E
:020931001B9F0A
:020932000000C3
:02093300E4617D
:02093400D8F0F9
:02093500E4617B
:020936000000BF
:020937001B9F04
:02093800271086
:020939001B9F02
:02093A000000BB
:02093B00E46175
:02093C00D8F0F1
:02093D00E46173
:02093E000000B7
:02093F001B9FFC
:0209400027107E
:020941001B9FFA
:020942000000B3
:02094300E4616D
:02094400D8F0E9
:02094500E4616B
:020946000000AF
:020947001B9FF4
:02094800271076
:020949001B9FF2
:02094A000000AB
:02094B00E46165
:02094C00D8F0E1
:02094D00E46163
:02094E000000A7
:02094F001B9FEC
:0209500027106E
:020951001B9FEA
:020952000000A3
:02095300E4615D
:02095400D8F0D9
:02095500E4615B
:0209560000009F
:020957001B9FE4
:02095800271066
:020959001B9FE2
:02095A0000009B
:02095B00E46155
:02095C00D8F0D1
:02095D00E46153
:02095E00000097
:02095F001B9FDC
:0209600027105E
:020961001B9FDA
:02096200000093
:02096300E4614D
:02096400D8F0C9
:02096500E4614B
:0209660000008F
:020967001B9FD4
:02096800271056
:020969001B9FD2
:02096A0000008B
:02096B00E46145
:02096C00D8F0C1
:02096D00E46143
:02096E00000087
:02096F001B9FCC
:0209700027104E
:020971001B9FCA
:02097200000083
:02097300E4613D
:02097400D8F0B9
:02097500E4613B
:0209760000007F
:020977001B9FC4
:02097800271046
:020979001B9FC2
:02097A0000007B
:02097B00E46135
:02097C00D8F0B1
:02097D00E46133
:02097E00000077
:02097F001B9FBC
:0209800027103E
:020981001B9FBA
:02098200000073
:02098300E4612D
:02098400D8F0A9
:02098500E4612B
:0209860000006F
:020987001B9FB4
:02098800271036
:020989001B9FB2
:02098A0000006B
:02098B00E46125
:02098C00D8F0A1
:02098D00E46123
:02098E00000067
:02098F001B9FAC
:0209900027102E
:020991001B9FAA
:02099200000063
:02099300E4611D
:02099400D8F099
:02099500E4611B
:0209960000005F
:020997001B9FA4
:02099800271026
:020999001B9FA2
:02099A0000005B
:02099B00E46115
:02099C00D8F091
:02099D00E46113
:02099E00000057
:02099F001B9F9C
:0209A00027101E
:0209A1001B9F9A
:0209A200000053
:0209A300E4610D
:0209A400D8F089
:0209A500E4610B
:0209A60000004F
:0209A7001B9F94
:0209A800271016
:0209A9001B9F92
:0209AA0000004B
:0209AB00E46105
:0209AC00D8F081
:0209AD00E46103
:0209AE00000047
:0209AF001B9F8C
:0209B00027100E
:0209B1001B9F8A
:0209B200000043
:0209B300E461FD
:0209B400D8F079
:0209B500E461FB
:0209B60000003F
:0209B7001B9F84
:0209B800271006
:0209B9001B9F82
:0209BA0000003B
:0209BB00E461F5
:0209BC00D8F071
:0209BD00E461F3
:0209BE00000037
:0209BF001B9F7C
:0209C0002710FE
:0209C1001B9F7A
:0209C200000033
:0209C300E461ED
:0209C400D8F069
:0209C500E461EB
:0209C60000002F
:0209C7001B9F74
:0209C8002710F6
:0209C9001B9F72
:0209CA0000002B
:0209CB00E461E5
:0209CC00D8F061
:0209CD00E461E3
:0209CE00000027
:0209CF001B9F6C
:0209D0002710EE
:0209D1001B9F6A
:0209D200000023
:0209D300E461DD
:0209D400D8F059
:0209D500E461DB
:0209D60000001F
:0209D7001B9F64
:0209D8002710E6
:0209D9001B9F62
:0209DA0000001B
:0209DB00E461D5
:0209DC00D8F051
:0209DD00E461D3
:0209DE00000017
:0209DF001B9F5C
:0209E0002710DE
:0209E1001B9F5A
:0209E200000013
:0209E300E461CD
:0209E400D8F049
:0209E500E461CB
:0209E60000000F
:0209E7001B9F54
:0209E8002710D6
:0209E9001B9F52
:0209EA0000000B
:0209EB00E461C5
:0209EC00D8F041
:0209ED00E461C3
:0209EE00000007
:0209EF001B9F4C
:0209F0002710CE
:0209F1001B9F4A
:0209F200000003
:0209F300E461BD
:0209F400D8F039
:0209F500E461BB
:0209F6000000FF
:0209F7001B9F44
:0209F8002710C6
:0209F9001B9F42
:0209FA000000FB
:0209FB00E461B5
:0209FC00D8F031
:0209FD00E461B3
:0209FE000000F7
:0209FF001B9F3C
:020A00002710BD
:020A01001B9F39
:020A02000000F2
:020A0300E461AC
:020A0400D8F028
:020A0500E461AA
:020A06000000EE
:020A07001B9F33
:020A08002710B5
:020A09001B9F31
:020A0A000000EA
:020A0B00E461A4
:020A0C00D8F020
:020A0D00E461A2
:020A0E000000E6
:020A0F001B9F2B
:020A10002710AD
:020A11001B9F29
:020A12000000E2
:020A1300E4619C
:020A1400D8F018
:020A1500E4619A
:020A16000000DE
:020A17001B9F23
:020A18002710A5
:020A19001B9F21
:020A1A000000DA
:020A1B00E46194
:020A1C00D8F010
:020A1D00E46192
:020A1E000000D6
:020A1F001B9F1B
:020A200027109D
:020A21001B9F19
:020A22000000D2
:020A2300E4618C
:020A2400D8F008
:020A2500E4618A
:020A26000000CE
:020A27001B9F13
:020A2800271095
:020A29001B9F11
:020A2A000000CA
:020A2B00E46184
:020A2C00D8F000
:020A2D00E46182
:020A2E000000C6
:020A2F001B9F0B
:020A300027108D
:020A31001B9F09
:020A32000000C2
:020A3300E4617C
:020A3400D8F0F8
:020A3500E4617A
:020A36000000BE
:020A37001B9F03
:020A3800271085
:020A39001B9F01
:020A3A000000BA
:020A3B00E46174
:020A3C00D8F0F0
:020A3D00E46172
:020A3E000000B6
:020A3F001B9FFB
:020A400027107D
:020A41001B9FF9
:020A42000000B2
:020A4300E4616C
:020A4400D8F0E8
:020A4500E4616A
:020A46000000AE
:020A47001B9FF3
:020A4800271075
:020A49001B9FF1
:020A4A000000AA
:020A4B00E46164
:020A4C00D8F0E0
:020A4D00E46162
:020A4E000000A6
:020A4F001B9FEB
:020A500027106D
:020A51001B9FE9
:020A52000000A2
:020A5300E4615C
:020A5400D8F0D8
:020A5500E4615A
:020A560000009E
:020A57001B9FE3
:020A5800271065
:020A59001B9FE1
:020A5A0000009A
:020A5B00E46154
:020A5C00D8F0D0
:020A5D00E46152
:020A5E00000096
:020A5F001B9FDB
:020A600027105D
:020A61001B9FD9
:020A6200000092
:020A6300E4614C
:020A6400D8F0C8
:020A6500E4614A
:020A660000008E
:020A67001B9FD3
:020A6800271055
:020A69001B9FD1
:020A6A0000008A
:020A6B00E46144
:020A6C00D8F0C0
:020A6D00E46142
:020A6E00000086
:020A6F001B9FCB
:020A700027104D
:020A71001B9FC9
:020A7200000082
:020A7300E4613C
:020A7400D8F0B8
:020A7500E4613A
:020A760000007E
:020A77001B9FC3
:020A7800271045
:020A79001B9FC1
:020A7A0000007A
:020A7B00E46134
:020A7C00D8F0B0
:020A7D00E46132
:020A7E00000076
:020A7F001B9FBB
:020A800027103D
:020A81001B9FB9
:020A8200000072
:020A8300E4612C
:020A8400D8F0A8
:020A8500E4612A
:020A860000006E
:020A87001B9FB3
:020A8800271035
:020A89001B9FB1
:020A8A0000006A
:020A8B00E46124
:020A8C00D8F0A0
:020A8D00E46122
:020A8E00000066
:020A8F001B9FAB
:020A900027102D
:020A91001B9FA9
:020A9200000062
:020A9300E4611C
:020A9400D8F098
:020A9500E4611A
:020A960000005E
:020A97001B9FA3
:020A9800271025
:020A99001B9FA1
:020A9A0000005A
:020A9B00E46114
:020A9C00D8F090
:020A9D00E46112
:020A9E00000056
:020A9F001B9F9B
:020AA00027101D
:020AA1001B9F99
:020AA200000052
:020AA300E4610C
:020AA400D8F088
:020AA500E4610A
:020AA60000004E
:020AA7001B9F93
:020AA800271015
:020AA9001B9F91
:020AAA0000004A
:020AAB00E46104
:020AAC00D8F080
:020AAD00E46102
:020AAE00000046
:020AAF001B9F8B
:020AB00027100D
:020AB1001B9F89
:020AB200000042
:020AB300E461FC
:020AB400D8F078
:020AB500E461FA
:020AB60000003E
:020AB7001B9F83
:020AB800271005
:020AB9001B9F81
:020ABA0000003A
:020ABB00E461F4
:020ABC00D8F070
:020ABD00E461F2
:020ABE00000036
:020ABF001B9F7B
:020AC0002710FD
:020AC1001B9F79
:020AC200000032
:020AC300E461EC
:020AC400D8F068
:020AC500E461EA
:020AC60000002E
:020AC7001B9F73
:020AC8002710F5
:020AC9001B9F71
:020ACA0000002A
:020ACB00E461E4
:020ACC00D8F060
:020ACD00E461E2
:020ACE00000026
:020ACF001B9F6B
:020AD0002710ED
:020AD1001B9F69
:020AD200000022
:020AD300E461DC
:020AD400D8F058
:020AD500E461DA
:020AD60000001E
:020AD7001B9F63
:020AD8002710E5
:020AD9001B9F61
:020ADA0000001A
:020ADB00E461D4
:020ADC00D8F050
:020ADD00E461D2
:020ADE00000016
:020ADF001B9F5B
:020AE0002710DD
:020AE1001B9F59
:020AE200000012
:020AE300E461CC
:020AE400D8F048
:020AE500E461CA
:020AE60000000E
:020AE7001B9F53
:020AE8002710D5
:020AE9001B9F51
:020AEA0000000A
:020AEB00E461C4
:020AEC00D8F040
:020AED00E461C2
:020AEE00000006
:020AEF001B9F4B
:020AF0002710CD
:020AF1001B9F49
:020AF200000002
:020AF300E461BC
:020AF400D8F038
:020AF500E461BA
:020AF6000000FE
:020AF7001B9F43
:020AF8002710C5
:020AF9001B9F41
:020AFA000000FA
:020AFB00E461B4
:020AFC00D8F030
:020AFD00E461B2
:020AFE000000F6
:020AFF001B9F3B
:020B00002710BC
:020B01001B9F38
:020B02000000F1
:020B0300E461AB
:020B0400D8F027
:020B0500E461A9
:020B06000000ED
:020B07001B9F32
:020B08002710B4
:020B09001B9F30
:020B0A000000E9
:020B0B00E461A3
:020B0C00D8F01F
:020B0D00E461A1
:020B0E000000E5
:020B0F001B9F2A
:020B10002710AC
:020B11001B9F28
:020B12000000E1
:020B1300E4619B
:020B1400D8F017
:020B1500E46199
:020B16000000DD
:020B17001B9F22
:020B18002710A4
:020B19001B9F20
:020B1A000000D9
:020B1B00E46193
:020B1C00D8F00F
:020B1D00E46191
:020B1E000000D5
:020B1F001B9F1A
:020B200027109C
:020B21001B9F18
:020B22000000D1
:020B2300E4618B
:020B2400D8F007
:020B2500E46189
:020B26000000CD
:020B27001B9F12
:020B2800271094
:020B29001B9F10
:020B2A000000C9
:020B2B00E46183
:020B2C00D8F0FF
:020B2D00E46181
:020B2E000000C5
:020B2F001B9F0A
:020B300027108C
:020B31001B9F08
:020B32000000C1
:020B3300E4617B
:020B3400D8F0F7
:020B3500E46179
:020B36000000BD
:020B37001B9F02
:020B3800271084
:020B39001B9F00
:020B3A000000B9
:020B3B00E46173
:020B3C00D8F0EF
:020B3D00E46171
:020B3E000000B5
:020B3F001B9FFA
:020B400027107C
:020B41001B9FF8
:020B42000000B1
:020B4300E4616B
:020B4400D8F0E7
:020B4500E46169
:020B46000000AD
:020B47001B9FF2
:020B4800271074
:020B49001B9FF0
:020B4A000000A9
:020B4B00E46163
:020B4C00D8F0DF
:020B4D00E46161
:020B4E000000A5
:020B4F001B9FEA
:020B500027106C
:020B51001B9FE8
:020B52000000A1
:020B5300E4615B
:020B5400D8F0D7
:020B5500E46159
:020B560000009D
:020B57001B9FE2
:020B5800271064
:020B59001B9FE0
:020B5A00000099
:020B5B00E46153
:020B5C00D8F0CF
:020B5D00E46151
:020B5E00000095
:020B5F001B9FDA
:020B600027105C
:020B61001B9FD8
:020B6200000091
:020B6300E4614B
:020B6400D8F0C7
:020B6500E46149
:020B660000008D
:020B67001B9FD2
:020B6800271054
:020B69001B9FD0
:020B6A00000089
:020B6B00E46143
:020B6C00D8F0BF
:020B6D00E46141
:020B6E00000085
:020B6F001B9FCA
:020B700027104C
:020B71001B9FC8
:020B7200000081
:020B7300E4613B
:020B7400D8F0B7
:020B7500E46139
:020B760000007D
:020B77001B9FC2
:020B7800271044
:020B79001B9FC0
:020B7A00000079
:020B7B00E46133
:020B7C00D8F0AF
:020B7D00E46131
:020B7E00000075
:020B7F001B9FBA
:020B800027103C
:020B81001B9FB8
:020B8200000071
:020B8300E4612B
:020B8400D8F0A7
:020B8500E46129
:020B860000006D
:020B87001B9FB2
:020B8800271034
:020B89001B9FB0
:020B8A00000069
:020B8B00E46123
:020B8C00D8F09F
:020B8D00E46121
:020B8E00000065
:020B8F001B9FAA
:020B900027102C
:020B91001B9FA8
:020B9200000061
:020B9300E4611B
:020B9400D8F097
:020B9500E46119
:020B960000005D
:020B97001B9FA2
:020B9800271024
:020B99001B9FA0
:020B9A00000059
:020B9B00E46113
:020B9C00D8F08F
:020B9D00E46111
:020B9E00000055
:020B9F001B9F9A
:020BA00027101C
:020BA1001B9F98
:020BA200000051
:020BA300E4610B
:020BA400D8F087
:020BA500E46109
:020BA60000004D
:020BA7001B9F92
:020BA800271014
:020BA9001B9F90
:020BAA00000049
:020BAB00E46103
:020BAC00D8F07F
:020BAD00E46101
:020BAE00000045
:020BAF001B9F8A
:020BB00027100C
:020BB1001B9F88
:020BB200000041
:020BB300E461FB
:020BB400D8F077
:020BB500E461F9
:020BB60000003D
:020BB7001B9F82
:020BB800271004
:020BB9001B9F80
:020BBA00000039
:020BBB00E461F3
:020BBC00D8F06F
:020BBD00E461F1
:020BBE00000035
:020BBF001B9F7A
:020BC0002710FC
:020BC1001B9F78
:020BC200000031
:020BC300E461EB
:020BC400D8F067
:020BC500E461E9
:020BC60000002D
:020BC7001B9F72
:020BC8002710F4
:020BC9001B9F70
:020BCA00000029
:020BCB00E461E3
:020BCC00D8F05F
:020BCD00E461E1
:020BCE00000025
:020BCF001B9F6A
:020BD0002710EC
:020BD1001B9F68
:020BD200000021
:020BD300E461DB
:020BD400D8F057
:020BD500E461D9
:020BD60000001D
:020BD7001B9F62
:020BD8002710E4
:020BD9001B9F60
:020BDA00000019
:020BDB00E461D3
:020BDC00D8F04F
:020BDD00E461D1
:020BDE00000015
:020BDF001B9F5A
:020BE0002710DC
:020BE1001B9F58
:020BE200000011
:020BE300E461CB
:020BE400D8F047
:020BE500E461C9
:020BE60000000D
:020BE7001B9F52
:020BE8002710D4
:020BE9001B9F50
:020BEA00000009
:020BEB00E461C3
:020BEC00D8F03F
:020BED00E461C1
:020BEE00000005
:020BEF001B9F4A
:020BF0002710CC
:020BF1001B9F48
:020BF200000001
:020BF300E461BB
:020BF400D8F037
:020BF500E461B9
:020BF6000000FD
:020BF7001B9F42
:020BF8002710C4
:020BF9001B9F40
:020BFA000000F9
:020BFB00E461B3
:020BFC00D8F02F
:020BFD00E461B1
:020BFE000000F5
:020BFF001B9F3A
:020C00002710BB
:020C01001B9F37
:020C02000000F0
:020C0300E461AA
:020C0400D8F026
:020C0500E461A8
:020C06000000EC
:020C07001B9F31
:020C08002710B3
:020C09001B9F2F
:020C0A000000E8
:020C0B00E461A2
:020C0C00D8F01E
:020C0D00E461A0
:020C0E000000E4
:020C0F001B9F29
:020C10002710AB
:020C11001B9F27
:020C12000000E0
:020C1300E4619A
:020C1400D8F016
:020C1500E46198
:020C16000000DC
:020C17001B9F21
:020C18002710A3
:020C19001B9F1F
:020C1A000000D8
:020C1B00E46192
:020C1C00D8F00E
:020C1D00E46190
:020C1E000000D4
:020C1F001B9F19
:020C200027109B
:020C21001B9F17
:020C22000000D0
:020C2300E4618A
:020C2400D8F006
:020C2500E46188
:020C26000000CC
:020C27001B9F11
:020C2800271093
:020C29001B9F0F
:020C2A000000C8
:020C2B00E46182
:020C2C00D8F0FE
:020C2D00E46180
:020C2E000000C4
:020C2F001B9F09
:020C300027108B
:020C31001B9F07
:020C32000000C0
:020C3300E4617A
:020C3400D8F0F6
:020C3500E46178
:020C36000000BC
:020C37001B9F01
:020C3800271083
:020C39001B9FFF
:020C3A000000B8
:020C3B00E46172
:020C3C00D8F0EE
:020C3D00E46170
:020C3E000000B4
:020C3F001B9FF9
:020C400027107B
:020C41001B9FF7
:020C42000000B0
:020C4300E4616A
:020C4400D8F0E6
:020C4500E46168
:020C46000000AC
:020C47001B9FF1
:020C4800271073
:020C49001B9FEF
:020C4A000000A8
:020C4B00E46162
:020C4C00D8F0DE
:020C4D00E46160
:020C4E000000A4
:020C4F001B9FE9
:020C500027106B
:020C51001B9FE7
:020C52000000A0
:020C5300E4615A
:020C5400D8F0D6
:020C5500E46158
:020C560000009C
:020C57001B9FE1
:020C5800271063
:020C59001B9FDF
:020C5A00000098
:020C5B00E46152
:020C5C00D8F0CE
:020C5D00E46150
:020C5E00000094
:020C5F001B9FD9
:020C600027105B
:020C61001B9FD7
:020C6200000090
:020C6300E4614A
:020C6400D8F0C6
:020C6500E46148
:020C660000008C
:020C67001B9FD1
:020C6800271053
:020C69001B9FCF
:020C6A00000088
:020C6B00E46142
:020C6C00D8F0BE
:020C6D00E46140
:020C6E00000084
:020C6F001B9FC9
:020C700027104B
:020C71001B9FC7
:020C7200000080
:020C7300E4613A
:020C7400D8F0B6
:020C7500E46138
:020C760000007C
:020C77001B9FC1
:020C7800271043
:020C79001B9FBF
:020C7A00000078
:020C7B00E46132
:020C7C00D8F0AE
:020C7D00E46130
:020C7E00000074
:020C7F001B9FB9
:020C800027103B
:020C81001B9FB7
:020C8200000070
:020C8300E4612A
:020C8400D8F0A6
:020C8500E46128
:020C860000006C
:020C87001B9FB1
:020C8800271033
:020C89001B9FAF
:020C8A00000068
:020C8B00E46122
:020C8C00D8F09E
:020C8D00E46120
:020C8E00000064
:020C8F001B9FA9
:020C900027102B
:020C91001B9FA7
:020C9200000060
:020C9300E4611A
:020C9400D8F096
:020C9500E46118
:020C960000005C
:020C97001B9FA1
:020C9800271023
:020C99001B9F9F
:020C9A00000058
:020C9B00E46112
:020C9C00D8F08E
:020C9D00E46110
:020C9E00000054
:020C9F001B9F99
:020CA00027101B
:020CA1001B9F97
:020CA200000050
:020CA300E4610A
:020CA400D8F086
:020CA500E46108
:020CA60000004C
:020CA7001B9F91
:020CA800271013
:020CA9001B9F8F
:020CAA00000048
:020CAB00E46102
:020CAC00D8F07E
:020CAD00E46100
:020CAE00000044
:020CAF001B9F89
:020CB00027100B
:020CB1001B9F87
:020CB200000040
:020CB300E461FA
:020CB400D8F076
:020CB500E461F8
:020CB60000003C
:020CB7001B9F81
:020CB800271003
:020CB9001B9F7F
:020CBA00000038
:020CBB00E461F2
:020CBC00D8F06E
:020CBD00E461F0
:020CBE00000034
:020CBF001B9F79
:020CC0002710FB
:020CC1001B9F77
:020CC200000030
:020CC300E461EA
:020CC400D8F066
:020CC500E461E8
:020CC60000002C
:020CC7001B9F71
:020CC8002710F3
:020CC9001B9F6F
:020CCA00000028
:020CCB00E461E2
:020CCC00D8F05E
:020CCD00E461E0
:020CCE00000024
:020CCF001B9F69
:020CD0002710EB
:020CD1001B9F67
:020CD200000020
:020CD300E461DA
:020CD400D8F056
:020CD500E461D8
:020CD60000001C
:020CD7001B9F61
:020CD8002710E3
:020CD9001B9F5F
:020CDA00000018
:020CDB00E461D2
:020CDC00D8F04E
:020CDD00E461D0
:020CDE00000014
:020CDF001B9F59
:020CE0002710DB
:020CE1001B9F57
:020CE200000010
:020CE300E461CA
:020CE400D8F046
:020CE500E461C8
:020CE60000000C
:020CE7001B9F51
:020CE8002710D3
:020CE9001B9F4F
:020CEA00000008
:020CEB00E461C2
:020CEC00D8F03E
:020CED00E461C0
:020CEE00000004
:020CEF001B9F49
:020CF0002710CB
:020CF1001B9F47
:020CF200000000
:020CF300E461BA
:020CF400D8F036
:020CF500E461B8
:020CF6000000FC
:020CF7001B9F41
:020CF8002710C3
:020CF9001B9F3F
:020CFA000000F8
:020CFB00E461B2
:020CFC00D8F02E
:020CFD00E461B0
:020CFE000000F4
:020CFF001B9F39
:020D00002710BA
:020D01001B9F36
:020D02000000EF
:020D0300E461A9
:020D0400D8F025
:020D0500E461A7
:020D06000000EB
:020D07001B9F30
:020D08002710B2
:020D09001B9F2E
:020D0A000000E7
:020D0B00E461A1
:020D0C00D8F01D
:020D0D00E4619F
:020D0E000000E3
:020D0F001B9F28
:020D10002710AA
:020D11001B9F26
:020D12000000DF
:020D1300E46199
:020D1400D8F015
:020D1500E46197
:020D16000000DB
:020D17001B9F20
:020D18002710A2
:020D19001B9F1E
:020D1A000000D7
:020D1B00E46191
:020D1C00D8F00D
:020D1D00E4618F
:020D1E000000D3
:020D1F001B9F18
:020D200027109A
:020D21001B9F16
:020D22000000CF
:020D2300E46189
:020D2400D8F005
:020D2500E46187
:020D26000000CB
:020D27001B9F10
:020D2800271092
:020D29001B9F0E
:020D2A000000C7
:020D2B00E46181
:020D2C00D8F0FD
:020D2D00E4617F
:020D2E000000C3
:020D2F001B9F08
:020D300027108A
:020D31001B9F06
:020D32000000BF
:020D3300E46179
:020D3400D8F0F5
:020D3500E46177
:020D36000000BB
:020D37001B9F00
:020D3800271082
:020D39001B9FFE
:020D3A000000B7
:020D3B00E46171
:020D3C00D8F0ED
:020D3D00E4616F
:020D3E000000B3
:020D3F001B9FF8
:020D400027107A
:020D41001B9FF6
:020D42000000AF
:020D4300E46169
:020D4400D8F0E5
:020D4500E46167
:020D46000000AB
:020D47001B9FF0
:020D4800271072
:020D49001B9FEE
:020D4A000000A7
:020D4B00E46161
:020D4C00D8F0DD
:020D4D00E4615F
:020D4E000000A3
:020D4F001B9FE8
:020D500027106A
:020D51001B9FE6
:020D520000009F
:020D5300E46159
:020D5400D8F0D5
:020D5500E46157
:020D560000009B
:020D57001B9FE0
:020D5800271062
:020D59001B9FDE
:020D5A00000097
:020D5B00E46151
:020D5C00D8F0CD
:020D5D00E4614F
:020D5E00000093
:020D5F001B9FD8
:020D600027105A
:020D61001B9FD6
:020D620000008F
:020D6300E46149
:020D6400D8F0C5
:020D6500E46147
:020D660000008B
:020D67001B9FD0
:020D6800271052
:020D69001B9FCE
:020D6A00000087
:020D6B00E46141
:020D6C00D8F0BD
:020D6D00E4613F
:020D6E00000083
:020D6F001B9FC8
:020D700027104A
:020D71001B9FC6
:020D720000007F
:020D7300E46139
:020D7400D8F0B5
:020D7500E46137
:020D760000007B
:020D77001B9FC0
:020D7800271042
:020D79001B9FBE
:020D7A00000077
:020D7B00E46131
:020D7C00D8F0AD
:020D7D00E4612F
:020D7E00000073
:020D7F001B9FB8
:020D800027103A
:020D81001B9FB6
:020D820000006F
:020D8300E46129
:020D8400D8F0A5
:020D8500E46127
:020D860000006B
:020D87001B9FB0
:020D8800271032
:020D89001B9FAE
:020D8A00000067
:020D8B00E46121
:020D8C00D8F09D
:020D8D00E4611F
:020D8E00000063
:020D8F001B9FA8
:020D900027102A
:020D91001B9FA6
:020D920000005F
:020D9300E46119
:020D9400D8F095
:020D9500E46117
:020D960000005B
:020D97001B9FA0
:020D9800271022
:020D99001B9F9E
:020D9A00000057
:020D9B00E46111
:020D9C00D8F08D
:020D9D00E4610F
:020D9E00000053
:020D9F001B9F98
:020DA00027101A
:020DA1001B9F96
:020DA20000004F
:020DA300E46109
:020DA400D8F085
:020DA500E46107
:020DA60000004B
:020DA7001B9F90
:020DA800271012
:020DA9001B9F8E
:020DAA00000047
:020DAB00E46101
:020DAC00D8F07D
:020DAD00E461FF
:020DAE00000043
:020DAF001B9F88
:020DB00027100A
:020DB1001B9F86
:020DB20000003F
:020DB300E461F9
:020DB400D8F075
:020DB500E461F7
:020DB60000003B
:020DB7001B9F80
:020DB800271002
:020DB9001B9F7E
:020DBA00000037
:020DBB00E461F1
:020DBC00D8F06D
:020DBD00E461EF
:020DBE00000033
:020DBF001B9F78
:020DC0002710FA
:020DC1001B9F76
:020DC20000002F
:020DC300E461E9
:020DC400D8F065
:020DC500E461E7
:020DC60000002B
:020DC7001B9F70
:020DC8002710F2
:020DC9001B9F6E
:020DCA00000027
:020DCB00E461E1
:020DCC00D8F05D
:020DCD00E461DF
:020DCE00000023
:020DCF001B9F68
:020DD0002710EA
:020DD1001B9F66
:020DD20000001F
:020DD300E461D9
:020DD400D8F055
:020DD500E461D7
:020DD60000001B
:020DD7001B9F60
:020DD8002710E2
:020DD9001B9F5E
:020DDA00000017
:020DDB00E461D1
:020DDC00D8F04D
:020DDD00E461CF
:020DDE00000013
:020DDF001B9F58
:020DE0002710DA
:020DE1001B9F56
:020DE20000000F
:020DE300E461C9
:020DE400D8F045
:020DE500E461C7
:020DE60000000B
:020DE7001B9F50
:020DE8002710D2
:020DE9001B9F4E
:020DEA00000007
:020DEB00E461C1
:020DEC00D8F03D
:020DED00E461BF
:020DEE00000003
:020DEF001B9F48
:020DF0002710CA
:020DF1001B9F46
:020DF2000000FF
:020DF300E461B9
:020DF400D8F035
:020DF500E461B7
:020DF6000000FB
:020DF7001B9F40
:020DF8002710C2
:020DF9001B9F3E
:020DFA000000F7
:020DFB00E461B1
:020DFC00D8F02D
:020DFD00E461AF
:020DFE000000F3
:020DFF001B9F38
:020E00002710B9
:020E01001B9F35
:020E02000000EE
:020E0300E461A8
:020E0400D8F024
:020E0500E461A6
:020E06000000EA
:020E07001B9F2F
:020E08002710B1
:020E09001B9F2D
:020E0A000000E6
:020E0B00E461A0
:020E0C00D8F01C
:020E0D00E4619E
:020E0E000000E2
:020E0F001B9F27
:020E10002710A9
:020E11001B9F25
:020E12000000DE
:020E1300E46198
:020E1400D8F014
:020E1500E46196
:020E16000000DA
:020E17001B9F1F
:020E18002710A1
:020E19001B9F1D
:020E1A000000D6
:020E1B00E46190
:020E1C00D8F00C
:020E1D00E4618E
:020E1E000000D2
:020E1F001B9F17
:020E2000271099
:020E21001B9F15
:020E22000000CE
:020E2300E46188
:020E2400D8F004
:020E2500E46186
:020E26000000CA
:020E27001B9F0F
:020E2800271091
:020E29001B9F0D
:020E2A000000C6
:020E2B00E46180
:020E2C00D8F0FC
:020E2D00E4617E
:020E2E000000C2
:020E2F001B9F07
:020E3000271089
:020E31001B9F05
:020E32000000BE
:020E3300E46178
:020E3400D8F0F4
:020E3500E46176
:020E36000000BA
:020E37001B9FFF
:020E3800271081
:020E39001B9FFD
:020E3A000000B6
:020E3B00E46170
:020E3C00D8F0EC
:020E3D00E4616E
:020E3E000000B2
:020E3F001B9FF7
:020E4000271079
:020E41001B9FF5
:020E42000000AE
:020E4300E46168
:020E4400D8F0E4
:020E4500E46166
:020E46000000AA
:020E47001B9FEF
:020E4800271071
:020E49001B9FED
:020E4A000000A6
:020E4B00E46160
:020E4C00D8F0DC
:020E4D00E4615E
:020E4E000000A2
:020E4F001B9FE7
:020E5000271069
:020E51001B9FE5
:020E520000009E
:020E5300E46158
:020E5400D8F0D4
:020E5500E46156
:020E560000009A
:020E57001B9FDF
:020E5800271061
:020E59001B9FDD
:020E5A00000096
:020E5B00E46150
:020E5C00D8F0CC
:020E5D00E4614E
:020E5E00000092
:020E5F001B9FD7
:020E6000271059
:020E61001B9FD5
:020E620000008E
:020E6300E46148
:020E6400D8F0C4
:020E6500E46146
:020E660000008A
:020E67001B9FCF
:020E6800271051
:020E69001B9FCD
:020E6A00000086
:020E6B00E46140
:020E6C00D8F0BC
:020E6D00E4613E
:020E6E00000082
:020E6F001B9FC7
:020E7000271049
:020E71001B9FC5
:020E720000007E
:020E7300E46138
:020E7400D8F0B4
:020E7500E46136
:020E760000007A
:020E77001B9FBF
:020E7800271041
:020E79001B9FBD
:020E7A00000076
:020E7B00E46130
:020E7C00D8F0AC
:020E7D00E4612E
:020E7E00000072
:020E7F001B9FB7
:020E8000271039
:020E81001B9FB5
:020E820000006E
:020E8300E46128
:020E8400D8F0A4
:020E8500E46126
:020E860000006A
:020E87001B9FAF
:020E8800271031
:020E89001B9FAD
:020E8A00000066
:020E8B00E46120
:020E8C00D8F09C
:020E8D00E4611E
:020E8E00000062
:020E8F001B9FA7
:020E9000271029
:020E91001B9FA5
:020E920000005E
:020E9300E46118
:020E9400D8F094
:020E9500E46116
:020E960000005A
:020E97001B9F9F
:020E9800271021
:020E99001B9F9D
:020E9A00000056
:020E9B00E46110
:020E9C00D8F08C
:020E9D00E4610E
:020E9E00000052
:020E9F001B9F97
:020EA000271019
:020EA1001B9F95
:020EA20000004E
:020EA300E46108
:020EA400D8F084
:020EA500E46106
:020EA60000004A
:020EA7001B9F8F
:020EA800271011
:020EA9001B9F8D
:020EAA00000046
:020EAB00E46100
:020EAC00D8F07C
:020EAD00E461FE
:020EAE00000042
:020EAF001B9F87
:020EB000271009
:020EB1001B9F85
:020EB20000003E
:020EB300E461F8
:020EB400D8F074
:020EB500E461F6
:020EB60000003A
:020EB7001B9F7F
:020EB800271001
:020EB9001B9F7D
:020EBA00000036
:020EBB00E461F0
:020EBC00D8F06C
:020EBD00E461EE
:020EBE00000032
:020EBF001B9F77
:020EC0002710F9
:020EC1001B9F75
:020EC20000002E
:020EC300E461E8
:020EC400D8F064
:020EC500E461E6
:020EC60000002A
:020EC7001B9F6F
:020EC8002710F1
:020EC9001B9F6D
:020ECA00000026
:020ECB00E461E0
:020ECC00D8F05C
:020ECD00E461DE
:020ECE00000022
:020ECF001B9F67
:020ED0002710E9
:020ED1001B9F65
:020ED20000001E
:020ED300E461D8
:020ED400D8F054
:020ED500E461D6
:020ED60000001A
:020ED7001B9F5F
:020ED8002710E1
:020ED9001B9F5D
:020EDA00000016
:020EDB00E461D0
:020EDC00D8F04C
:020EDD00E461CE
:020EDE00000012
:020EDF001B9F57
:020EE0002710D9
:020EE1001B9F55
:020EE20000000E
:020EE300E461C8
:020EE400D8F044
:020EE500E461C6
:020EE60000000A
:020EE7001B9F4F
:020EE8002710D1
:020EE9001B9F4D
:020EEA00000006
:020EEB00E461C0
:020EEC00D8F03C
:020EED00E461BE
:020EEE00000002
:020EEF001B9F47
:020EF0002710C9
:020EF1001B9F45
:020EF2000000FE
:020EF300E461B8
:020EF400D8F034
:020EF500E461B6
:020EF6000000FA
:020EF7001B9F3F
:020EF8002710C1
:020EF9001B9F3D
:020EFA000000F6
:020EFB00E461B0
:020EFC00D8F02C
:020EFD00E461AE
:020EFE000000F2
:020EFF001B9F37
:020F00002710B8
:020F01001B9F34
:020F02000000ED
:020F0300E461A7
:020F0400D8F023
:020F0500E461A5
:020F06000000E9
:020F07001B9F2E
:020F08002710B0
:020F09001B9F2C
:020F0A000000E5
:020F0B00E4619F
:020F0C00D8F01B
:020F0D00E4619D
:020F0E000000E1
:020F0F001B9F26
:020F10002710A8
:020F11001B9F24
:020F12000000DD
:020F1300E46197
:020F1400D8F013
:020F1500E46195
:020F16000000D9
:020F17001B9F1E
:020F18002710A0
:020F19001B9F1C
:020F1A000000D5
:020F1B00E4618F
:020F1C00D8F00B
:020F1D00E4618D
:020F1E000000D1
:020F1F001B9F16
:020F2000271098
:020F21001B9F14
:020F22000000CD
:020F2300E46187
:020F2400D8F003
:020F2500E46185
:020F26000000C9
:020F27001B9F0E
:020F2800271090
:020F29001B9F0C
:020F2A000000C5
:020F2B00E4617F
:020F2C00D8F0FB
:020F2D00E4617D
:020F2E000000C1
:020F2F001B9F06
:020F3000271088
:020F31001B9F04
:020F32000000BD
:020F3300E46177
:020F3400D8F0F3
:020F3500E46175
:020F36000000B9
:020F37001B9FFE
:020F3800271080
:020F39001B9FFC
:020F3A000000B5
:020F3B00E4616F
:020F3C00D8F0EB
:020F3D00E4616D
:020F3E000000B1
:020F3F001B9FF6
:020F4000271078
:020F41001B9FF4
:020F42000000AD
:020F4300E46167
:020F4400D8F0E3
:020F4500E46165
:020F46000000A9
:020F47001B9FEE
:020F4800271070
:020F49001B9FEC
:020F4A000000A5
:020F4B00E4615F
:020F4C00D8F0DB
:020F4D00E4615D
:020F4E000000A1
:020F4F001B9FE6
:020F5000271068
:020F51001B9FE4
:020F520000009D
:020F5300E46157
:020F5400D8F0D3
:020F5500E46155
:020F5600000099
:020F57001B9FDE
:020F5800271060
:020F59001B9FDC
:020F5A00000095
:020F5B00E4614F
:020F5C00D8F0CB
:020F5D00E4614D
:020F5E00000091
:020F5F001B9FD6
:020F6000271058
:020F61001B9FD4
:020F620000008D
:020F6300E46147
:020F6400D8F0C3
:020F6500E46145
:020F6600000089
:020F67001B9FCE
:020F6800271050
:020F69001B9FCC
:020F6A00000085
:020F6B00E4613F
:020F6C00D8F0BB
:020F6D00E4613D
:020F6E00000081
:020F6F001B9FC6
:020F7000271048
:020F71001B9FC4
:020F720000007D
:020F7300E46137
:020F7400D8F0B3
:020F7500E46135
:020F7600000079
:020F77001B9FBE
:020F7800271040
:020F79001B9FBC
:020F7A00000075
:020F7B00E4612F
:020F7C00D8F0AB
:020F7D00E4612D
:020F7E00000071
:020F7F001B9FB6
:020F8000271038
:020F81001B9FB4
:020F820000006D
:020F8300E46127
:020F8400D8F0A3
:020F8500E46125
:020F8600000069
:020F87001B9FAE
:020F8800271030
:020F89001B9FAC
:020F8A00000065
:020F8B00E4611F
:020F8C00D8F09B
:020F8D00E4611D
:020F8E00000061
:020F8F001B9FA6
:020F9000271028
:020F91001B9FA4
:020F920000005D
:020F9300E46117
:020F9400D8F093
:020F9500E46115
:020F9600000059
:020F97001B9F9E
:020F9800271020
:020F99001B9F9C
:020F9A00000055
:020F9B00E4610F
:020F9C00D8F08B
:020F9D00E4610D
:020F9E00000051
:020F9F001B9F96
